{
  "contractName": "NoticeItem",
  "abi": [
    {
      "constant": true,
      "inputs": [
        {
          "name": "",
          "type": "uint256"
        }
      ],
      "name": "best_offer",
      "outputs": [
        {
          "name": "",
          "type": "uint256"
        }
      ],
      "payable": false,
      "stateMutability": "view",
      "type": "function"
    },
    {
      "constant": true,
      "inputs": [],
      "name": "ref_item_notice",
      "outputs": [
        {
          "name": "",
          "type": "uint256"
        }
      ],
      "payable": false,
      "stateMutability": "view",
      "type": "function"
    },
    {
      "constant": true,
      "inputs": [],
      "name": "ref_value",
      "outputs": [
        {
          "name": "",
          "type": "uint256"
        }
      ],
      "payable": false,
      "stateMutability": "view",
      "type": "function"
    },
    {
      "constant": true,
      "inputs": [
        {
          "name": "",
          "type": "uint256"
        }
      ],
      "name": "blocknumber",
      "outputs": [
        {
          "name": "",
          "type": "uint256"
        }
      ],
      "payable": false,
      "stateMutability": "view",
      "type": "function"
    },
    {
      "inputs": [
        {
          "name": "notice_value",
          "type": "uint256"
        },
        {
          "name": "ref_item",
          "type": "uint256"
        }
      ],
      "payable": true,
      "stateMutability": "payable",
      "type": "constructor"
    },
    {
      "constant": false,
      "inputs": [
        {
          "name": "bidder",
          "type": "address"
        },
        {
          "name": "offer",
          "type": "uint256"
        },
        {
          "name": "bid_bn",
          "type": "uint256"
        }
      ],
      "name": "tryBid",
      "outputs": [
        {
          "name": "bid_status",
          "type": "uint256"
        }
      ],
      "payable": false,
      "stateMutability": "nonpayable",
      "type": "function"
    },
    {
      "constant": true,
      "inputs": [
        {
          "name": "bn_notice_end",
          "type": "uint256"
        }
      ],
      "name": "getBestBidder",
      "outputs": [
        {
          "name": "bidder_address",
          "type": "address"
        }
      ],
      "payable": false,
      "stateMutability": "view",
      "type": "function"
    },
    {
      "constant": true,
      "inputs": [],
      "name": "getBestOffer",
      "outputs": [
        {
          "name": "offer",
          "type": "uint256"
        }
      ],
      "payable": false,
      "stateMutability": "view",
      "type": "function"
    },
    {
      "constant": true,
      "inputs": [],
      "name": "getRefValue",
      "outputs": [
        {
          "name": "ref",
          "type": "uint256"
        }
      ],
      "payable": false,
      "stateMutability": "view",
      "type": "function"
    },
    {
      "constant": true,
      "inputs": [],
      "name": "getAllBestOffers",
      "outputs": [
        {
          "name": "best_offer_array",
          "type": "uint256[]"
        }
      ],
      "payable": false,
      "stateMutability": "view",
      "type": "function"
    },
    {
      "constant": true,
      "inputs": [],
      "name": "getAllbn",
      "outputs": [
        {
          "name": "offer_bn_array",
          "type": "uint256[]"
        }
      ],
      "payable": false,
      "stateMutability": "view",
      "type": "function"
    },
    {
      "constant": true,
      "inputs": [],
      "name": "getAllBestBidders",
      "outputs": [
        {
          "name": "best_bidders_array",
          "type": "address[]"
        }
      ],
      "payable": false,
      "stateMutability": "view",
      "type": "function"
    }
  ],
  "bytecode": "0x60806040818152806106388339810180604052604081101561002057600080fd5b50805160209091015160008054600160a060020a031916331790556002919091556001556105e5806100536000396000f3fe6080604052600436106100ae5763ffffffff7c01000000000000000000000000000000000000000000000000000000006000350416630d84191481146100b35780631bd2f025146101185780633df510cf146101545780634d94f6c1146101695780636399a6ee1461017e5780636a1028b3146101935780636ac68f7f146101a857806373a4bcf7146101ee5780637955e9c014610218578063a267dd881461022d578063f79861f61461026c575b600080fd5b3480156100bf57600080fd5b506100c8610281565b60408051602080825283518183015283519192839290830191858101910280838360005b838110156101045781810151838201526020016100ec565b505050509050019250505060405180910390f35b34801561012457600080fd5b506101426004803603602081101561013b57600080fd5b50356102f1565b60408051918252519081900360200190f35b34801561016057600080fd5b50610142610310565b34801561017557600080fd5b50610142610336565b34801561018a57600080fd5b5061014261033c565b34801561019f57600080fd5b50610142610342565b3480156101b457600080fd5b506101d2600480360360208110156101cb57600080fd5b5035610348565b60408051600160a060020a039092168252519081900360200190f35b3480156101fa57600080fd5b506101426004803603602081101561021157600080fd5b5035610399565b34801561022457600080fd5b506100c86103a7565b34801561023957600080fd5b506101426004803603606081101561025057600080fd5b50600160a060020a038135169060208101359060400135610415565b34801561027857600080fd5b506100c8610540565b600054606090600160a060020a0316331461029b57600080fd5b60048054806020026020016040519081016040528092919081815260200182805480156102e757602002820191906000526020600020905b8154815260200190600101908083116102d3575b5050505050905090565b60038054829081106102ff57fe5b600091825260209091200154905081565b6003805460009190600019810190811061032657fe5b9060005260206000200154905090565b60015481565b60025490565b60025481565b60008054600160a060020a0316331461036057600080fd5b43821061036c57600080fd5b60058054600019810190811061037e57fe5b600091825260209091200154600160a060020a031692915050565b60048054829081106102ff57fe5b600054606090600160a060020a031633146103c157600080fd5b60038054806020026020016040519081016040528092919081815260200182805480156102e757602002820191906000526020600020908154815260200190600101908083116102d3575050505050905090565b60008054600160a060020a0316331461042d57600080fd5b600060025484101561044157506000610445565b5060015b600354158061046f575060038054600019810190811061046157fe5b906000526020600020015484105b15610533576003805460018082019092557fc2575a0e9e593c00f959f8c92f12db2869c3395a3b0502d05e2516446f71f85b01859055600580548083019091557f036b6384b5eca791c62761152d0c79bb0604c104a5fb6f4eb0703f3154bb3db001805473ffffffffffffffffffffffffffffffffffffffff1916600160a060020a0388161790556004805480830182556000919091527f8a35acfbc15ff81a39ae7d344fd709f28e8600b4aa8c65c6b64bfe7fe36bd19b01849055019050610539565b60030190505b9392505050565b600054606090600160a060020a0316331461055a57600080fd5b60058054806020026020016040519081016040528092919081815260200182805480156102e757602002820191906000526020600020905b8154600160a060020a0316815260019091019060200180831161059257505050505090509056fea165627a7a7230582043e04265cce52e2456ef2c60719bfdc46f226f2eb378d904e0dfe3dd0db719b70029",
  "source": "// pragma solidity ^0.5.0;\n\n\n// contract PregaoOnline {\n//   constructor() public {\n//   }\n// }\n\npragma solidity >= 0.4.22 < 0.6.0;\n\ncontract NoticeFactory {\n  address[] notices;\n\n  function addNotice(address _buyer) public {\n    Notice n = new Notice(_buyer);\n    notices.push(address(n));\n  }\n\n  function getNotices() public view returns(address[] memory) {\n    return notices;\n  }\n}\n\ncontract Notice {\n  enum QuestionStatus {OPEN, REJECTED, DEFERRED }\n  enum NoticeStatus {CONFIG, RUNNING, SUSPENDED, CANCELED, ENDED }\n\n  // questions struct\n  struct Question {\n    string[] ipsf_questions;\n    string[] ipsf_answer;\n    QuestionStatus status;\n  }\n\n\n  // bidders struct\n  struct Bidder {\n    address[] item;\n    uint[] value;\n    uint[] bn;\n    uint[] status_bid;\n    bool able;\n  }\n\n  // general info needed to open a new Notice\n  address public notice_owner; // factory address\n  mapping(address => bool) buyers; // buyers mapping\n\n  string[] ipsf_hash; // pdf hash\n\n\n  address[] bidders; // bidders address\n  mapping(address => Bidder) public bidders_mapping; // bidders mapping\n\n  address[] public notice_items; // address list of itens in the notice\n  mapping(address => bool) notice_items_mapping; // notice item mapping\n\n  // controlling variables\n  uint[] publish_bn; // notice start time\n  uint[] opening_bn; // bn of public session opening\n  uint[] ending_bn; // bn to end the open session\n  uint[] iminent_bn; // iminent time to end the ending notice\n\n  uint public i_publish_bn;\n  uint public i_open_session_bn;\n  uint i_start_eminent_bn;\n  uint i_end_notice;\n  uint public i_open_to_eminent;\n  uint blocks_extensions;\n\n  uint public i_suspension_init;\n\n  NoticeStatus public noticeStatus;\n  NoticeStatus[] noticeStatusHistory;\n\n    // events\n\n  event NewNoticePDF(address _from, string _ipsf);\n  event UpdateNotice(address _from, NoticeStatus status);\n  event NewBid(address _from, address _item, uint _value, uint _res);\n\n\n  // modifiers\n  modifier onlyNoticeOwner() {\n    require(msg.sender == notice_owner || buyers[msg.sender] == true);\n    _;\n  }\n  modifier onlyBidders() {\n    require(bidders_mapping[msg.sender].able == true);\n    _;\n  }\n\n  modifier notSuspended() {\n    require(noticeStatus != NoticeStatus.SUSPENDED);\n    _;\n  }\n\n  modifier notCanceled() {\n    require(noticeStatus != NoticeStatus.CANCELED);\n    _;\n  }\n\n  modifier atConfigState() {\n    require(noticeStatus == NoticeStatus.CONFIG);\n    _;\n  }\n\n  modifier afterPublish() {\n    require(block.number >= i_publish_bn);\n    _;\n  }\n\n  modifier atPublicSummon() {\n    require(block.number >= i_publish_bn && block.number < i_open_session_bn);\n    _;\n  }\n\n  modifier atOpenSession() {\n    require(block.number >= i_open_session_bn && block.number < i_end_notice);\n    _;\n  }\n\n  modifier openToBid() {\n    require(block.number >= i_publish_bn && block.number < i_end_notice);\n    _;\n  }\n\n  modifier afterOpen() {\n    require(block.number >= i_open_session_bn);\n    _;\n  }\n  modifier ended() {\n    require(block.number > i_end_notice);\n    _;\n  }\n\n  modifier autoUpdateStatus() {\n    if(block.number > i_end_notice) {\n      noticeStatusHistory.push(noticeStatus);\n      noticeStatus = NoticeStatus.ENDED;\n      emit UpdateNotice(msg.sender, noticeStatus);\n    }\n    _;\n  }\n  \n  constructor(address _buyer) public payable {\n    notice_owner = _buyer;\n    buyers[_buyer] = true;\n    noticeStatus = NoticeStatus.CONFIG;\n    i_suspension_init = 0;\n    noticeStatusHistory.push(noticeStatus);\n  }\n\n  /*\n    Configuration functions\n  */\n\n  // add notices pdfs\n  function addNoticePDF(string memory pdf_hash) public onlyNoticeOwner() atConfigState() {\n    ipsf_hash.push(pdf_hash);\n    emit NewNoticePDF(msg.sender, pdf_hash);\n  }\n\n  function configBlocksIntervals(uint publish, uint opening, uint start_eminent, uint end, uint extension) public atConfigState onlyNoticeOwner {\n    require(ipsf_hash.length > 0);\n    require(publish >= 0);\n    require(opening > 0);\n    require(start_eminent > 0);\n    require(end > 0);\n    require(extension >= 0);\n    publish_bn.push(publish);\n    opening_bn.push(opening);\n    ending_bn.push(start_eminent);\n    iminent_bn.push(end);\n    i_publish_bn = publish;\n    i_open_session_bn = i_publish_bn + opening;\n    i_start_eminent_bn = i_open_session_bn + start_eminent;\n    i_end_notice = i_start_eminent_bn + end;\n    i_open_to_eminent = start_eminent + opening;\n    blocks_extensions = extension;\n  }\n\n\n  // add item to notice\n  function addItem(uint value, uint ref) public atConfigState() onlyNoticeOwner() returns(address newItem) {\n    require(ipsf_hash.length > 0);\n    NoticeItem new_item = new NoticeItem(value, ref);\n    notice_items.push(address(new_item));\n    notice_items_mapping[address(new_item)] = true;\n    return address(new_item);\n  }\n\n\n  // force end\n  /* function endNotice(uint bn) public notSuspended() notCanceled() onlyNoticeOwner() {\n    iminent_bn.push(ending_bn[ending_bn.length-1] + bn);\n  } */\n\n  // set blocks extensions for every new bid\n  function setBlockExtension(uint extension) public atConfigState() onlyNoticeOwner() {\n    require(extension > 0);\n    blocks_extensions = extension;\n  }\n\n  // add blocks to notices limit\n  function addBlocksLimit() private {\n    require(block.number < i_start_eminent_bn);\n    if (i_start_eminent_bn + blocks_extensions < block.number + i_open_to_eminent) {\n      i_start_eminent_bn += blocks_extensions;\n      i_end_notice += blocks_extensions;\n    } else {\n      i_start_eminent_bn = block.number + i_open_to_eminent;\n      i_end_notice = block.number + i_open_to_eminent;\n    }\n  }\n\n  // change notice status\n  function updateStatus(NoticeStatus status) public onlyNoticeOwner() {\n    noticeStatusHistory.push(noticeStatus);\n    noticeStatus = status;\n    emit UpdateNotice(msg.sender, status);\n  }\n\n  /*\n  Buyer operation functions\n  */\n\n  function startNotice() public onlyNoticeOwner() {\n    require(noticeStatus == NoticeStatus.CONFIG);\n    require(i_suspension_init == 0);\n    i_publish_bn += block.number;\n    i_open_session_bn += block.number;\n    i_start_eminent_bn += block.number;\n    i_end_notice += block.number;\n    updateStatus(NoticeStatus.RUNNING);\n  }\n\n  function suspendNotice() public afterPublish() onlyNoticeOwner() {\n    require(noticeStatus != NoticeStatus.SUSPENDED);\n    i_suspension_init = block.number;\n    updateStatus(NoticeStatus.SUSPENDED);\n  }\n\n  function returnNotice() public afterPublish() onlyNoticeOwner() {\n    uint increment = block.number - i_suspension_init;\n    i_publish_bn += increment;\n    i_open_session_bn += increment;\n    i_start_eminent_bn += increment;\n    i_end_notice += increment;\n    updateStatus(NoticeStatus.RUNNING);\n  }\n\n  function endNotice() public notSuspended() onlyNoticeOwner() {\n    require(block.number >= i_end_notice, \"you cannot end\");\n    updateStatus(NoticeStatus.ENDED);\n  }\n\n  /*\n  Bidders functions\n  */\n\n  // function to bidder enter the notice\n  function enterNotice() public notSuspended() atPublicSummon() {\n    require(msg.sender != notice_owner);\n    require(bidders_mapping[msg.sender].able == false);\n    require(noticeStatus == NoticeStatus.RUNNING);\n    bidders_mapping[msg.sender].able = true;\n    bidders.push(msg.sender);\n  }\n\n  // Bidder exit notice, only before public session opening.\n  function exitNotice() public onlyBidders() atPublicSummon() {\n    bidders_mapping[msg.sender].able = false;\n  }\n\n\n  // make bid and add blocks to notice end\n  function makeBid(address notice_item, uint offer) public autoUpdateStatus() notSuspended() notCanceled() onlyBidders() openToBid() {\n    require(notice_items_mapping[notice_item] == true);\n    require(noticeStatus == NoticeStatus.RUNNING);\n    NoticeItem deployed_contract;\n    deployed_contract = NoticeItem(notice_item);\n\n    uint resp = deployed_contract.tryBid(msg.sender, offer, block.number);\n\n    bidders_mapping[msg.sender].item.push(notice_item);\n    bidders_mapping[msg.sender].value.push(offer);\n    bidders_mapping[msg.sender].bn.push(block.number);\n    bidders_mapping[msg.sender].status_bid.push(resp);\n\n    emit NewBid(msg.sender, notice_item, offer, resp);\n    if (resp <= 2) { // only add blocks to notice limits when the item notice offer is updated\n      addBlocksLimit();\n    }\n  }\n\n  /*\n  Views of the notice\n  */\n\n  // returns most recent pdf info link and hash to verify proof\n  function getLastNoticeInfo() public view returns(string memory ipsf) {\n    require(msg.sender == notice_owner || block.number >= i_publish_bn);\n    require(ipsf_hash.length > 0);\n    return (ipsf_hash[ipsf_hash.length - 1]);\n  }\n\n  // returns any link and hash by index in history\n  function getNoticeHistoryByIndex(uint i) public view returns(string memory ipsf) {\n    require(msg.sender == notice_owner || block.number >= i_publish_bn);\n    require(ipsf_hash.length > 0);\n    require(i < ipsf_hash.length);\n    return (ipsf_hash[i]);\n  }\n\n  function getNoticePDFHistoryLength() public view returns(uint) {\n    require(msg.sender == notice_owner || block.number >= i_publish_bn);\n    require(ipsf_hash.length > 0);\n    return ipsf_hash.length;\n  }\n\n  function getBidders() public view ended() returns(address[] memory) {\n    return bidders;\n  }\n\n  function getNoticeItems() public view afterPublish() returns(address[] memory) {\n    return notice_items;\n  }\n\n  function returnEminentStatus() public view onlyNoticeOwner() returns(bool status) {\n    if (block.number >= i_start_eminent_bn && block.number < i_end_notice) {\n      return true;\n    } else {\n      return false;\n    }\n  }\n\n  // return bids of a given bidder\n  function getBids(address bidder)\n    public view ended()\n    returns(address[] memory notice_item_list, uint[] memory notice_item_offer, uint[] memory notice_offer_ts, uint[] memory notice_offer_status)\n  {\n    return (bidders_mapping[bidder].item, bidders_mapping[bidder].value,\n      bidders_mapping[bidder].bn, bidders_mapping[bidder].status_bid);\n  }\n\n  // get best bidder by any item\n  function getBestBidderItemByAddress(address item_address) public view notSuspended() ended() returns(address bidder) {\n    NoticeItem deployed_contract;\n    deployed_contract = NoticeItem(item_address);\n    return deployed_contract.getBestBidder(i_end_notice);\n  }\n\n  // returns the array with all bidders to the item\n  function getBiddersItemArray(address item_address) public view notSuspended() ended() returns(address[] memory bidders_array) {\n    NoticeItem deployed_contract;\n    deployed_contract = NoticeItem(item_address);\n    return deployed_contract.getAllBestBidders();\n  }\n\n  function getBestOffersItemArray(address item_address) public view notSuspended() afterOpen() returns(uint[] memory best_offer_array) {\n    NoticeItem deployed_contract;\n    deployed_contract = NoticeItem(item_address);\n    return deployed_contract.getAllBestOffers();\n  }\n\n  /* function getBestOfferByItemAddress(address item_address) public afterOpen() view returns (uint best_offer) { */\n  function getBestOfferByItemAddress(address item_address) public view returns(uint best_offer) {\n    NoticeItem deployed_contract;\n    deployed_contract = NoticeItem(item_address);\n    return deployed_contract.getBestOffer();\n  }\n\n  // get max value of given item address\n  function getRefValueByAddress(address item_address) public view returns(uint ref_value) {\n    NoticeItem deployed_contract;\n    deployed_contract = NoticeItem(item_address);\n    return deployed_contract.getRefValue();\n  }\n\n\n  function getInstanceStartEminent() public onlyNoticeOwner view returns (uint) {\n    return i_start_eminent_bn;\n  }\n\n  function getInstanceEndNotice() public onlyNoticeOwner view returns (uint) {\n    return i_end_notice;\n  }\n\n  function getInstanceBlockExtension() public onlyNoticeOwner view returns (uint) {\n    return blocks_extensions;\n  }\n}\n\ncontract NoticeItem {\n  // TODO: add any reference to notice pdf item\n  address notice; // refence to the notice it belongs\n  uint public ref_item_notice; // item reference notice\n  uint public ref_value; // max value of this item\n  uint[] public best_offer; // best offer until now\n  uint[] public blocknumber; // bn of the best offer\n  address[] private best_bidder_address; // address of best bidder\n\n  modifier onlyNotice() {\n    require(msg.sender == notice);\n    _;\n  }\n\n  constructor(uint notice_value, uint ref_item) public payable {\n    notice = msg.sender;\n    ref_value = notice_value;\n    ref_item_notice = ref_item;\n  }\n\n  function tryBid(address bidder, uint offer, uint bid_bn) public onlyNotice returns(uint bid_status) {\n    uint res;\n    if (offer < ref_value) {\n      res = 0;\n    } else {\n      res = 1; \n    }\n    if (best_offer.length == 0 || offer < best_offer[best_offer.length - 1]) {\n      best_offer.push(offer);\n      best_bidder_address.push(bidder);\n      blocknumber.push(bid_bn);\n      return res + 1;\n    } else {\n      return res + 3;\n    }\n  }\n\n  function getBestBidder(uint bn_notice_end) public onlyNotice view returns(address bidder_address) {\n    require(bn_notice_end < block.number);\n    return best_bidder_address[best_bidder_address.length - 1];\n  }\n\n  function getBestOffer() public view returns(uint offer) {\n    return best_offer[best_offer.length - 1];\n  }\n\n  function getRefValue() public view returns(uint ref) {\n    return ref_value;\n  }\n\n  function getAllBestOffers() public onlyNotice view returns(uint[] memory best_offer_array) {\n    return best_offer;\n  }\n\n  function getAllbn() public onlyNotice view returns(uint[] memory offer_bn_array) {\n    return blocknumber;\n  }\n\n  function getAllBestBidders() public onlyNotice view returns(address[] memory best_bidders_array) {\n    return best_bidder_address;\n  }\n}",
  "sourcePath": "/home/rodcaldeira/ufes/20191/pg2/next/contracts/PregaoOnline.sol",
  "compiler": {
    "name": "solc",
    "version": "0.5.0+commit.1d4f565a.Emscripten.clang"
  },
  "schemaVersion": "3.0.9",
  "updatedAt": "2019-06-29T21:54:46.440Z",
  "devdoc": {
    "methods": {}
  },
  "userdoc": {
    "methods": {}
  }
}