{
  "contractName": "Notice",
  "abi": [
    {
      "constant": true,
      "inputs": [],
      "name": "i_suspension_init",
      "outputs": [
        {
          "name": "",
          "type": "uint256"
        }
      ],
      "payable": false,
      "stateMutability": "view",
      "type": "function"
    },
    {
      "constant": true,
      "inputs": [
        {
          "name": "",
          "type": "uint256"
        }
      ],
      "name": "notice_items",
      "outputs": [
        {
          "name": "",
          "type": "address"
        }
      ],
      "payable": false,
      "stateMutability": "view",
      "type": "function"
    },
    {
      "constant": true,
      "inputs": [],
      "name": "i_publish_bn",
      "outputs": [
        {
          "name": "",
          "type": "uint256"
        }
      ],
      "payable": false,
      "stateMutability": "view",
      "type": "function"
    },
    {
      "constant": true,
      "inputs": [],
      "name": "noticeStatus",
      "outputs": [
        {
          "name": "",
          "type": "uint8"
        }
      ],
      "payable": false,
      "stateMutability": "view",
      "type": "function"
    },
    {
      "constant": true,
      "inputs": [],
      "name": "i_open_session_bn",
      "outputs": [
        {
          "name": "",
          "type": "uint256"
        }
      ],
      "payable": false,
      "stateMutability": "view",
      "type": "function"
    },
    {
      "constant": true,
      "inputs": [
        {
          "name": "",
          "type": "address"
        }
      ],
      "name": "bidders_mapping",
      "outputs": [
        {
          "name": "able",
          "type": "bool"
        }
      ],
      "payable": false,
      "stateMutability": "view",
      "type": "function"
    },
    {
      "constant": true,
      "inputs": [],
      "name": "notice_owner",
      "outputs": [
        {
          "name": "",
          "type": "address"
        }
      ],
      "payable": false,
      "stateMutability": "view",
      "type": "function"
    },
    {
      "constant": true,
      "inputs": [],
      "name": "i_open_to_eminent",
      "outputs": [
        {
          "name": "",
          "type": "uint256"
        }
      ],
      "payable": false,
      "stateMutability": "view",
      "type": "function"
    },
    {
      "inputs": [
        {
          "name": "_buyer",
          "type": "address"
        }
      ],
      "payable": true,
      "stateMutability": "payable",
      "type": "constructor"
    },
    {
      "anonymous": false,
      "inputs": [
        {
          "indexed": false,
          "name": "_from",
          "type": "address"
        },
        {
          "indexed": false,
          "name": "_ipsf",
          "type": "string"
        }
      ],
      "name": "NewNoticePDF",
      "type": "event"
    },
    {
      "anonymous": false,
      "inputs": [
        {
          "indexed": false,
          "name": "_from",
          "type": "address"
        },
        {
          "indexed": false,
          "name": "status",
          "type": "uint8"
        }
      ],
      "name": "UpdateNotice",
      "type": "event"
    },
    {
      "anonymous": false,
      "inputs": [
        {
          "indexed": false,
          "name": "_from",
          "type": "address"
        },
        {
          "indexed": false,
          "name": "_item",
          "type": "address"
        },
        {
          "indexed": false,
          "name": "_value",
          "type": "uint256"
        },
        {
          "indexed": false,
          "name": "_res",
          "type": "uint256"
        }
      ],
      "name": "NewBid",
      "type": "event"
    },
    {
      "constant": false,
      "inputs": [
        {
          "name": "pdf_hash",
          "type": "string"
        }
      ],
      "name": "addNoticePDF",
      "outputs": [],
      "payable": false,
      "stateMutability": "nonpayable",
      "type": "function"
    },
    {
      "constant": false,
      "inputs": [
        {
          "name": "publish",
          "type": "uint256"
        },
        {
          "name": "opening",
          "type": "uint256"
        },
        {
          "name": "start_eminent",
          "type": "uint256"
        },
        {
          "name": "end",
          "type": "uint256"
        },
        {
          "name": "extension",
          "type": "uint256"
        }
      ],
      "name": "configBlocksIntervals",
      "outputs": [],
      "payable": false,
      "stateMutability": "nonpayable",
      "type": "function"
    },
    {
      "constant": false,
      "inputs": [
        {
          "name": "value",
          "type": "uint256"
        },
        {
          "name": "ref",
          "type": "uint256"
        }
      ],
      "name": "addItem",
      "outputs": [
        {
          "name": "newItem",
          "type": "address"
        }
      ],
      "payable": false,
      "stateMutability": "nonpayable",
      "type": "function"
    },
    {
      "constant": false,
      "inputs": [
        {
          "name": "extension",
          "type": "uint256"
        }
      ],
      "name": "setBlockExtension",
      "outputs": [],
      "payable": false,
      "stateMutability": "nonpayable",
      "type": "function"
    },
    {
      "constant": false,
      "inputs": [
        {
          "name": "status",
          "type": "uint8"
        }
      ],
      "name": "updateStatus",
      "outputs": [],
      "payable": false,
      "stateMutability": "nonpayable",
      "type": "function"
    },
    {
      "constant": false,
      "inputs": [],
      "name": "startNotice",
      "outputs": [],
      "payable": false,
      "stateMutability": "nonpayable",
      "type": "function"
    },
    {
      "constant": false,
      "inputs": [],
      "name": "suspendNotice",
      "outputs": [],
      "payable": false,
      "stateMutability": "nonpayable",
      "type": "function"
    },
    {
      "constant": false,
      "inputs": [],
      "name": "returnNotice",
      "outputs": [],
      "payable": false,
      "stateMutability": "nonpayable",
      "type": "function"
    },
    {
      "constant": false,
      "inputs": [],
      "name": "endNotice",
      "outputs": [],
      "payable": false,
      "stateMutability": "nonpayable",
      "type": "function"
    },
    {
      "constant": false,
      "inputs": [],
      "name": "enterNotice",
      "outputs": [],
      "payable": false,
      "stateMutability": "nonpayable",
      "type": "function"
    },
    {
      "constant": false,
      "inputs": [],
      "name": "exitNotice",
      "outputs": [],
      "payable": false,
      "stateMutability": "nonpayable",
      "type": "function"
    },
    {
      "constant": false,
      "inputs": [
        {
          "name": "notice_item",
          "type": "address"
        },
        {
          "name": "offer",
          "type": "uint256"
        }
      ],
      "name": "makeBid",
      "outputs": [],
      "payable": false,
      "stateMutability": "nonpayable",
      "type": "function"
    },
    {
      "constant": true,
      "inputs": [],
      "name": "getLastNoticeInfo",
      "outputs": [
        {
          "name": "ipsf",
          "type": "string"
        }
      ],
      "payable": false,
      "stateMutability": "view",
      "type": "function"
    },
    {
      "constant": true,
      "inputs": [
        {
          "name": "i",
          "type": "uint256"
        }
      ],
      "name": "getNoticeHistoryByIndex",
      "outputs": [
        {
          "name": "ipsf",
          "type": "string"
        }
      ],
      "payable": false,
      "stateMutability": "view",
      "type": "function"
    },
    {
      "constant": true,
      "inputs": [],
      "name": "getNoticePDFHistoryLength",
      "outputs": [
        {
          "name": "",
          "type": "uint256"
        }
      ],
      "payable": false,
      "stateMutability": "view",
      "type": "function"
    },
    {
      "constant": true,
      "inputs": [],
      "name": "getBidders",
      "outputs": [
        {
          "name": "",
          "type": "address[]"
        }
      ],
      "payable": false,
      "stateMutability": "view",
      "type": "function"
    },
    {
      "constant": true,
      "inputs": [],
      "name": "getNoticeItems",
      "outputs": [
        {
          "name": "",
          "type": "address[]"
        }
      ],
      "payable": false,
      "stateMutability": "view",
      "type": "function"
    },
    {
      "constant": true,
      "inputs": [],
      "name": "returnEminentStatus",
      "outputs": [
        {
          "name": "status",
          "type": "bool"
        }
      ],
      "payable": false,
      "stateMutability": "view",
      "type": "function"
    },
    {
      "constant": true,
      "inputs": [
        {
          "name": "bidder",
          "type": "address"
        }
      ],
      "name": "getBids",
      "outputs": [
        {
          "name": "notice_item_list",
          "type": "address[]"
        },
        {
          "name": "notice_item_offer",
          "type": "uint256[]"
        },
        {
          "name": "notice_offer_ts",
          "type": "uint256[]"
        },
        {
          "name": "notice_offer_status",
          "type": "uint256[]"
        }
      ],
      "payable": false,
      "stateMutability": "view",
      "type": "function"
    },
    {
      "constant": true,
      "inputs": [
        {
          "name": "item_address",
          "type": "address"
        }
      ],
      "name": "getBestBidderItemByAddress",
      "outputs": [
        {
          "name": "bidder",
          "type": "address"
        }
      ],
      "payable": false,
      "stateMutability": "view",
      "type": "function"
    },
    {
      "constant": true,
      "inputs": [
        {
          "name": "item_address",
          "type": "address"
        }
      ],
      "name": "getBiddersItemArray",
      "outputs": [
        {
          "name": "bidders_array",
          "type": "address[]"
        }
      ],
      "payable": false,
      "stateMutability": "view",
      "type": "function"
    },
    {
      "constant": true,
      "inputs": [
        {
          "name": "item_address",
          "type": "address"
        }
      ],
      "name": "getBestOffersItemArray",
      "outputs": [
        {
          "name": "best_offer_array",
          "type": "uint256[]"
        }
      ],
      "payable": false,
      "stateMutability": "view",
      "type": "function"
    },
    {
      "constant": true,
      "inputs": [
        {
          "name": "item_address",
          "type": "address"
        }
      ],
      "name": "getBestOfferByItemAddress",
      "outputs": [
        {
          "name": "best_offer",
          "type": "uint256"
        }
      ],
      "payable": false,
      "stateMutability": "view",
      "type": "function"
    },
    {
      "constant": true,
      "inputs": [
        {
          "name": "item_address",
          "type": "address"
        }
      ],
      "name": "getRefValueByAddress",
      "outputs": [
        {
          "name": "ref_value",
          "type": "uint256"
        }
      ],
      "payable": false,
      "stateMutability": "view",
      "type": "function"
    },
    {
      "constant": true,
      "inputs": [],
      "name": "getInstanceStartEminent",
      "outputs": [
        {
          "name": "",
          "type": "uint256"
        }
      ],
      "payable": false,
      "stateMutability": "view",
      "type": "function"
    },
    {
      "constant": true,
      "inputs": [],
      "name": "getInstanceEndNotice",
      "outputs": [
        {
          "name": "",
          "type": "uint256"
        }
      ],
      "payable": false,
      "stateMutability": "view",
      "type": "function"
    },
    {
      "constant": true,
      "inputs": [],
      "name": "getInstanceBlockExtension",
      "outputs": [
        {
          "name": "",
          "type": "uint256"
        }
      ],
      "payable": false,
      "stateMutability": "view",
      "type": "function"
    }
  ],
  "bytecode": "0x60806040526040516020806126228339810180604052602081101561002357600080fd5b505160008054600160a060020a03909216600160a060020a0319909216821781559081526001602081815260408320805460ff199081168417909155601280549091169055601183905560138054928301815583527f66de8ffda797e3de9c05e8fc57b3bf0ec28a930d40b0d285d93c06501cf6a090908204018054601f9092166101000a60ff021990911690556125619081906100c190396000f3fe60806040526004361061019d5763ffffffff60e060020a600035041663014bf59281146101a2578063045ea156146101c95780630a27a889146101e05780630b3af7f9146101f55780630d38436814610222578063149b2626146102685780631faccbf91461027d57806329ce528f1461029257806331d766da146102c55780633e6d33f5146102ee57806347cea1fe14610327578063493517c81461033c5780634cab974a1461036f57806366090602146103845780636866d6591461040e5780636fbeb139146104c157806370ba111a146104d65780637b3fd8d0146104eb5780638785d6f31461051557806396635b3b1461052a5780639dccae821461056c5780639f06cd6f146106c2578063a2125232146106f5578063bc24555a14610725578063c403d07a1461075e578063cb6632ef14610773578063d2c4fd9a146107d8578063d4010db6146107ed578063d75e6b0014610820578063d8cedb5f1461084a578063dd2d49a51461085f578063eb23a4a514610892578063eb3ce35c146108a7578063f92d7fa3146108da578063fbc4efb2146108ef575b600080fd5b3480156101ae57600080fd5b506101b7610904565b60408051918252519081900360200190f35b3480156101d557600080fd5b506101de61090a565b005b3480156101ec57600080fd5b506101de610a0a565b34801561020157600080fd5b506101de6004803603602081101561021857600080fd5b503560ff16610ade565b34801561022e57600080fd5b5061024c6004803603602081101561024557600080fd5b5035610bee565b60408051600160a060020a039092168252519081900360200190f35b34801561027457600080fd5b506101de610c16565b34801561028957600080fd5b506101b7610c94565b34801561029e57600080fd5b506101b7600480360360208110156102b557600080fd5b5035600160a060020a0316610c9a565b3480156102d157600080fd5b506102da610d0f565b604080519115158252519081900360200190f35b3480156102fa57600080fd5b50610303610d70565b6040518082600481111561031357fe5b60ff16815260200191505060405180910390f35b34801561033357600080fd5b506101b7610d79565b34801561034857600080fd5b506102da6004803603602081101561035f57600080fd5b5035600160a060020a0316610d7f565b34801561037b57600080fd5b5061024c610d98565b34801561039057600080fd5b50610399610da7565b6040805160208082528351818301528351919283929083019185019080838360005b838110156103d35781810151838201526020016103bb565b50505050905090810190601f1680156104005780820380516001836020036101000a031916815260200191505b509250505060405180910390f35b34801561041a57600080fd5b506101de6004803603602081101561043157600080fd5b81019060208101813564010000000081111561044c57600080fd5b82018360208201111561045e57600080fd5b8035906020019184600183028401116401000000008311171561048057600080fd5b91908080601f016020809104026020016040519081016040528093929190818152602001838380828437600092019190915250929550610e89945050505050565b3480156104cd57600080fd5b506101de610fdb565b3480156104e257600080fd5b506101de61106c565b3480156104f757600080fd5b506103996004803603602081101561050e57600080fd5b50356110e0565b34801561052157600080fd5b506101b76111ce565b34801561053657600080fd5b506101de600480360360a081101561054d57600080fd5b508035906020810135906040810135906060810135906080013561120f565b34801561057857600080fd5b5061059f6004803603602081101561058f57600080fd5b5035600160a060020a0316611398565b6040518080602001806020018060200180602001858103855289818151815260200191508051906020019060200280838360005b838110156105eb5781810151838201526020016105d3565b50505050905001858103845288818151815260200191508051906020019060200280838360005b8381101561062a578181015183820152602001610612565b50505050905001858103835287818151815260200191508051906020019060200280838360005b83811015610669578181015183820152602001610651565b50505050905001858103825286818151815260200191508051906020019060200280838360005b838110156106a8578181015183820152602001610690565b505050509050019850505050505050505060405180910390f35b3480156106ce57600080fd5b506101b7600480360360208110156106e557600080fd5b5035600160a060020a0316611535565b34801561070157600080fd5b5061024c6004803603604081101561071857600080fd5b5080359060200135611577565b34801561073157600080fd5b506101de6004803603604081101561074857600080fd5b50600160a060020a038135169060200135611689565b34801561076a57600080fd5b506101b76119b3565b34801561077f57600080fd5b506107886119b9565b60408051602080825283518183015283519192839290830191858101910280838360005b838110156107c45781810151838201526020016107ac565b505050509050019250505060405180910390f35b3480156107e457600080fd5b506101b7611a29565b3480156107f957600080fd5b506107886004803603602081101561081057600080fd5b5035600160a060020a0316611a6a565b34801561082c57600080fd5b506101de6004803603602081101561084357600080fd5b5035611b6c565b34801561085657600080fd5b506101b7611bd4565b34801561086b57600080fd5b5061024c6004803603602081101561088257600080fd5b5035600160a060020a0316611c15565b34801561089e57600080fd5b506101de611c91565b3480156108b357600080fd5b50610788600480360360208110156108ca57600080fd5b5035600160a060020a0316611cf1565b3480156108e657600080fd5b506101b7611d60565b3480156108fb57600080fd5b50610788611d9d565b60115481565b600260125460ff16600481111561091d57fe5b141561092857600080fd5b600b54431015801561093b5750600c5443105b151561094657600080fd5b600054600160a060020a031633141561095e57600080fd5b336000908152600460208190526040909120015460ff161561097f57600080fd5b600160125460ff16600481111561099257fe5b1461099c57600080fd5b336000818152600460208190526040822001805460ff191660019081179091556003805491820181559091527fc2575a0e9e593c00f959f8c92f12db2869c3395a3b0502d05e2516446f71f85b01805473ffffffffffffffffffffffffffffffffffffffff19169091179055565b600260125460ff166004811115610a1d57fe5b1415610a2857600080fd5b600054600160a060020a0316331480610a5657503360009081526001602081905260409091205460ff161515145b1515610a6157600080fd5b600e54431015610ad257604080517f08c379a000000000000000000000000000000000000000000000000000000000815260206004820152600e60248201527f796f752063616e6e6f7420656e64000000000000000000000000000000000000604482015290519081900360640190fd5b610adc6004610ade565b565b600054600160a060020a0316331480610b0c57503360009081526001602081905260409091205460ff161515145b1515610b1757600080fd5b6012546013805460018101808355600092909252602081047f66de8ffda797e3de9c05e8fc57b3bf0ec28a930d40b0d285d93c06501cf6a090018054929360ff908116939192601f166101000a9081021990911690836004811115610b7857fe5b0217905550506012805482919060ff19166001836004811115610b9757fe5b0217905550604051338082527ffa8a015f5a86942b7d0427ad07d96f331c7695804178bb80f89a59159adeff6a91839060208101826004811115610bd757fe5b60ff1681526020019250505060405180910390a150565b6005805482908110610bfc57fe5b600091825260209091200154600160a060020a0316905081565b600b54431015610c2557600080fd5b600054600160a060020a0316331480610c5357503360009081526001602081905260409091205460ff161515145b1515610c5e57600080fd5b601154600b805443929092039182019055600c805482019055600d805482019055600e805482019055610c916001610ade565b50565b600b5481565b60008082905080600160a060020a0316636399a6ee6040518163ffffffff1660e060020a02815260040160206040518083038186803b158015610cdc57600080fd5b505afa158015610cf0573d6000803e3d6000fd5b505050506040513d6020811015610d0657600080fd5b50519392505050565b60008054600160a060020a0316331480610d3e57503360009081526001602081905260409091205460ff161515145b1515610d4957600080fd5b600d544310158015610d5c5750600e5443105b15610d6957506001610d6d565b5060005b90565b60125460ff1681565b600c5481565b6004602081905260009182526040909120015460ff1681565b600054600160a060020a031681565b600054606090600160a060020a0316331480610dc55750600b544310155b1515610dd057600080fd5b600254600010610ddf57600080fd5b600280546000198101908110610df157fe5b600091825260209182902001805460408051601f6002600019610100600187161502019094169390930492830185900485028101850190915281815292830182828015610e7f5780601f10610e5457610100808354040283529160200191610e7f565b820191906000526020600020905b815481529060010190602001808311610e6257829003601f168201915b5050505050905090565b600054600160a060020a0316331480610eb757503360009081526001602081905260409091205460ff161515145b1515610ec257600080fd5b600060125460ff166004811115610ed557fe5b14610edf57600080fd5b60028054600181018083556000929092528251610f23917f405787fa12a823e0f2b7631cc41b3ba8828b3321ca811111fa75cd3aa3bb5ace01906020850190611e55565b50507faffe3589cab0153d17e7a41dcb1081c78329db81a92037ac8cec63d08247d57333826040518083600160a060020a0316600160a060020a0316815260200180602001828103825283818151815260200191508051906020019080838360005b83811015610f9d578181015183820152602001610f85565b50505050905090810190601f168015610fca5780820380516001836020036101000a031916815260200191505b50935050505060405180910390a150565b600054600160a060020a031633148061100957503360009081526001602081905260409091205460ff161515145b151561101457600080fd5b600060125460ff16600481111561102757fe5b1461103157600080fd5b6011541561103e57600080fd5b600b805443908101909155600c805482019055600d805482019055600e80549091019055610adc6001610ade565b600b5443101561107b57600080fd5b600054600160a060020a03163314806110a957503360009081526001602081905260409091205460ff161515145b15156110b457600080fd5b600260125460ff1660048111156110c757fe5b14156110d257600080fd5b43601155610adc6002610ade565b600054606090600160a060020a03163314806110fe5750600b544310155b151561110957600080fd5b60025460001061111857600080fd5b600254821061112657600080fd5b600280548390811061113457fe5b600091825260209182902001805460408051601f60026000196101006001871615020190941693909304928301859004850281018501909152818152928301828280156111c25780601f10611197576101008083540402835291602001916111c2565b820191906000526020600020905b8154815290600101906020018083116111a557829003601f168201915b50505050509050919050565b60008054600160a060020a03163314806111fd57503360009081526001602081905260409091205460ff161515145b151561120857600080fd5b50600e5490565b600060125460ff16600481111561122257fe5b1461122c57600080fd5b600054600160a060020a031633148061125a57503360009081526001602081905260409091205460ff161515145b151561126557600080fd5b60025460001061127457600080fd5b600085101561128257600080fd5b6000841161128f57600080fd5b6000831161129c57600080fd5b600082116112a957600080fd5b60008110156112b757600080fd5b6007805460018181019092557fa66cc928b5edb82af9bd49922954155ab7b0942694bea4ce44661d9a8736c68801869055600880548083019091557ff3f7a9fe364faab93b216da50a3214154f22a0a2b415b23a84c8169e8b636ee301859055600980548083019091557f6e1540171b6c0c960b71a7020d9f60077f6af931a8bbf590da0223dacf75c7af01849055600a805491820181556000527fc65a7bb8d6351c1cf70c95a316cc6a92839c986682d98bc35f958f4883f9d2a801829055600b859055938301600c8190558201600d81905501600e5501600f55601055565b606080606080600e54431115156113ae57600080fd5b600160a060020a038516600090815260046020908152604091829020805483518184028101840190945280845290926001840192600285019260038601929186919083018282801561142957602002820191906000526020600020905b8154600160a060020a0316815260019091019060200180831161140b575b505050505093508280548060200260200160405190810160405280929190818152602001828054801561147b57602002820191906000526020600020905b815481526020019060010190808311611467575b50505050509250818054806020026020016040519081016040528092919081815260200182805480156114cd57602002820191906000526020600020905b8154815260200190600101908083116114b9575b505050505091508080548060200260200160405190810160405280929190818152602001828054801561151f57602002820191906000526020600020905b81548152602001906001019080831161150b575b5050505050905093509350935093509193509193565b60008082905080600160a060020a0316633df510cf6040518163ffffffff1660e060020a02815260040160206040518083038186803b158015610cdc57600080fd5b60008060125460ff16600481111561158b57fe5b1461159557600080fd5b600054600160a060020a03163314806115c357503360009081526001602081905260409091205460ff161515145b15156115ce57600080fd5b6002546000106115dd57600080fd5b600083836115e9611ed3565b9182526020820152604080519182900301906000f080158015611610573d6000803e3d6000fd5b506005805460018082019092557f036b6384b5eca791c62761152d0c79bb0604c104a5fb6f4eb0703f3154bb3db001805473ffffffffffffffffffffffffffffffffffffffff1916600160a060020a0384169081179091556000908152600660205260409020805460ff19169091179055949350505050565b600e54431115611762576012546013805460018101808355600092909252602081047f66de8ffda797e3de9c05e8fc57b3bf0ec28a930d40b0d285d93c06501cf6a090018054929360ff908116939192601f166101000a90810219909116908360048111156116f457fe5b0217905550506012805460ff1916600490811791829055604051338082527ffa8a015f5a86942b7d0427ad07d96f331c7695804178bb80f89a59159adeff6a93909260ff90911691906020820190839081111561174d57fe5b60ff1681526020019250505060405180910390a15b600260125460ff16600481111561177557fe5b141561178057600080fd5b600360125460ff16600481111561179357fe5b141561179e57600080fd5b336000908152600460208190526040909120015460ff1615156001146117c357600080fd5b600b5443101580156117d65750600e5443105b15156117e157600080fd5b600160a060020a03821660009081526006602052604090205460ff16151560011461180b57600080fd5b600160125460ff16600481111561181e57fe5b1461182857600080fd5b604080517fa267dd880000000000000000000000000000000000000000000000000000000081523360048201526024810183905243604482015290518391600091600160a060020a0384169163a267dd8891606480830192602092919082900301818787803b15801561189a57600080fd5b505af11580156118ae573d6000803e3d6000fd5b505050506040513d60208110156118c457600080fd5b50513360008181526004602090815260408083208054600181810183558286528486209091018054600160a060020a038d1673ffffffffffffffffffffffffffffffffffffffff19909116811790915581830180548084018255908752858720018b905560028301805480840182559087528587204391015560039092018054918201815585529383902090930185905580519384529083019190915281810186905260608201839052519192507fb0255fc648c57268b3e31f2f68cee14205bb16649bd2691a2db4d12d8e3175e1919081900360800190a1600281116119ad576119ad611e0d565b50505050565b600f5481565b600e5460609043116119ca57600080fd5b6003805480602002602001604051908101604052809291908181526020018280548015610e7f57602002820191906000526020600020905b8154600160a060020a03168152600190910190602001808311611a02575050505050905090565b60008054600160a060020a0316331480611a5857503360009081526001602081905260409091205460ff161515145b1515611a6357600080fd5b50600d5490565b6060600260125460ff166004811115611a7f57fe5b1415611a8a57600080fd5b600c54431015611a9957600080fd5b600082905080600160a060020a0316637955e9c06040518163ffffffff1660e060020a02815260040160006040518083038186803b158015611ada57600080fd5b505afa158015611aee573d6000803e3d6000fd5b505050506040513d6000823e601f3d908101601f191682016040526020811015611b1757600080fd5b810190808051640100000000811115611b2f57600080fd5b82016020810184811115611b4257600080fd5b8151856020820283011164010000000082111715611b5f57600080fd5b5090979650505050505050565b600060125460ff166004811115611b7f57fe5b14611b8957600080fd5b600054600160a060020a0316331480611bb757503360009081526001602081905260409091205460ff161515145b1515611bc257600080fd5b60008111611bcf57600080fd5b601055565b60008054600160a060020a0316331480611c0357503360009081526001602081905260409091205460ff161515145b1515611c0e57600080fd5b5060105490565b6000600260125460ff166004811115611c2a57fe5b1415611c3557600080fd5b600e544311611c4357600080fd5b600082905080600160a060020a0316636ac68f7f600e546040518263ffffffff1660e060020a0281526004018082815260200191505060206040518083038186803b158015610cdc57600080fd5b336000908152600460208190526040909120015460ff161515600114611cb657600080fd5b600b544310158015611cc95750600c5443105b1515611cd457600080fd5b33600090815260046020819052604090912001805460ff19169055565b6060600260125460ff166004811115611d0657fe5b1415611d1157600080fd5b600e544311611d1f57600080fd5b600082905080600160a060020a031663f79861f66040518163ffffffff1660e060020a02815260040160006040518083038186803b158015611ada57600080fd5b60008054600160a060020a0316331480611d7c5750600b544310155b1515611d8757600080fd5b600254600010611d9657600080fd5b5060025490565b600b54606090431015611daf57600080fd5b6005805480602002602001604051908101604052809291908181526020018280548015610e7f57602002820191906000526020600020908154600160a060020a03168152600190910190602001808311611a02575050505050905090565b600d544310611e1b57600080fd5b600f544301601054600d54011015611e4657601054600d805482019055600e80549091019055610adc565b600f544301600d819055600e55565b828054600181600116156101000203166002900490600052602060002090601f016020900481019282601f10611e9657805160ff1916838001178555611ec3565b82800160010185558215611ec3579182015b82811115611ec3578251825591602001919060010190611ea8565b50611ecf929150611ee3565b5090565b60405161063880611efe83390190565b610d6d91905b80821115611ecf5760008155600101611ee956fe60806040818152806106388339810180604052604081101561002057600080fd5b50805160209091015160008054600160a060020a031916331790556002919091556001556105e5806100536000396000f3fe6080604052600436106100ae5763ffffffff7c01000000000000000000000000000000000000000000000000000000006000350416630d84191481146100b35780631bd2f025146101185780633df510cf146101545780634d94f6c1146101695780636399a6ee1461017e5780636a1028b3146101935780636ac68f7f146101a857806373a4bcf7146101ee5780637955e9c014610218578063a267dd881461022d578063f79861f61461026c575b600080fd5b3480156100bf57600080fd5b506100c8610281565b60408051602080825283518183015283519192839290830191858101910280838360005b838110156101045781810151838201526020016100ec565b505050509050019250505060405180910390f35b34801561012457600080fd5b506101426004803603602081101561013b57600080fd5b50356102f1565b60408051918252519081900360200190f35b34801561016057600080fd5b50610142610310565b34801561017557600080fd5b50610142610336565b34801561018a57600080fd5b5061014261033c565b34801561019f57600080fd5b50610142610342565b3480156101b457600080fd5b506101d2600480360360208110156101cb57600080fd5b5035610348565b60408051600160a060020a039092168252519081900360200190f35b3480156101fa57600080fd5b506101426004803603602081101561021157600080fd5b5035610399565b34801561022457600080fd5b506100c86103a7565b34801561023957600080fd5b506101426004803603606081101561025057600080fd5b50600160a060020a038135169060208101359060400135610415565b34801561027857600080fd5b506100c8610540565b600054606090600160a060020a0316331461029b57600080fd5b60048054806020026020016040519081016040528092919081815260200182805480156102e757602002820191906000526020600020905b8154815260200190600101908083116102d3575b5050505050905090565b60038054829081106102ff57fe5b600091825260209091200154905081565b6003805460009190600019810190811061032657fe5b9060005260206000200154905090565b60015481565b60025490565b60025481565b60008054600160a060020a0316331461036057600080fd5b43821061036c57600080fd5b60058054600019810190811061037e57fe5b600091825260209091200154600160a060020a031692915050565b60048054829081106102ff57fe5b600054606090600160a060020a031633146103c157600080fd5b60038054806020026020016040519081016040528092919081815260200182805480156102e757602002820191906000526020600020908154815260200190600101908083116102d3575050505050905090565b60008054600160a060020a0316331461042d57600080fd5b600060025484101561044157506000610445565b5060015b600354158061046f575060038054600019810190811061046157fe5b906000526020600020015484105b15610533576003805460018082019092557fc2575a0e9e593c00f959f8c92f12db2869c3395a3b0502d05e2516446f71f85b01859055600580548083019091557f036b6384b5eca791c62761152d0c79bb0604c104a5fb6f4eb0703f3154bb3db001805473ffffffffffffffffffffffffffffffffffffffff1916600160a060020a0388161790556004805480830182556000919091527f8a35acfbc15ff81a39ae7d344fd709f28e8600b4aa8c65c6b64bfe7fe36bd19b01849055019050610539565b60030190505b9392505050565b600054606090600160a060020a0316331461055a57600080fd5b60058054806020026020016040519081016040528092919081815260200182805480156102e757602002820191906000526020600020905b8154600160a060020a0316815260019091019060200180831161059257505050505090509056fea165627a7a7230582043e04265cce52e2456ef2c60719bfdc46f226f2eb378d904e0dfe3dd0db719b70029a165627a7a7230582033dc7864064544673c4d410650081ad5686d81b011ccfcccad737fc9a69d9a5f0029",
  "source": "// pragma solidity ^0.5.0;\n\n\n// contract PregaoOnline {\n//   constructor() public {\n//   }\n// }\n\npragma solidity >= 0.4.22 < 0.6.0;\n\ncontract NoticeFactory {\n  address[] notices;\n\n  function addNotice(address _buyer) public {\n    Notice n = new Notice(_buyer);\n    notices.push(address(n));\n  }\n\n  function getNotices() public view returns(address[] memory) {\n    return notices;\n  }\n}\n\ncontract Notice {\n  enum QuestionStatus {OPEN, REJECTED, DEFERRED }\n  enum NoticeStatus {CONFIG, RUNNING, SUSPENDED, CANCELED, ENDED }\n\n  // questions struct\n  struct Question {\n    string[] ipsf_questions;\n    string[] ipsf_answer;\n    QuestionStatus status;\n  }\n\n\n  // bidders struct\n  struct Bidder {\n    address[] item;\n    uint[] value;\n    uint[] bn;\n    uint[] status_bid;\n    bool able;\n  }\n\n  // general info needed to open a new Notice\n  address public notice_owner; // factory address\n  mapping(address => bool) buyers; // buyers mapping\n\n  string[] ipsf_hash; // pdf hash\n\n\n  address[] bidders; // bidders address\n  mapping(address => Bidder) public bidders_mapping; // bidders mapping\n\n  address[] public notice_items; // address list of itens in the notice\n  mapping(address => bool) notice_items_mapping; // notice item mapping\n\n  // controlling variables\n  uint[] publish_bn; // notice start time\n  uint[] opening_bn; // bn of public session opening\n  uint[] ending_bn; // bn to end the open session\n  uint[] iminent_bn; // iminent time to end the ending notice\n\n  uint public i_publish_bn;\n  uint public i_open_session_bn;\n  uint i_start_eminent_bn;\n  uint i_end_notice;\n  uint public i_open_to_eminent;\n  uint blocks_extensions;\n\n  uint public i_suspension_init;\n\n  NoticeStatus public noticeStatus;\n  NoticeStatus[] noticeStatusHistory;\n\n    // events\n\n  event NewNoticePDF(address _from, string _ipsf);\n  event UpdateNotice(address _from, NoticeStatus status);\n  event NewBid(address _from, address _item, uint _value, uint _res);\n\n\n  // modifiers\n  modifier onlyNoticeOwner() {\n    require(msg.sender == notice_owner || buyers[msg.sender] == true);\n    _;\n  }\n  modifier onlyBidders() {\n    require(bidders_mapping[msg.sender].able == true);\n    _;\n  }\n\n  modifier notSuspended() {\n    require(noticeStatus != NoticeStatus.SUSPENDED);\n    _;\n  }\n\n  modifier notCanceled() {\n    require(noticeStatus != NoticeStatus.CANCELED);\n    _;\n  }\n\n  modifier atConfigState() {\n    require(noticeStatus == NoticeStatus.CONFIG);\n    _;\n  }\n\n  modifier afterPublish() {\n    require(block.number >= i_publish_bn);\n    _;\n  }\n\n  modifier atPublicSummon() {\n    require(block.number >= i_publish_bn && block.number < i_open_session_bn);\n    _;\n  }\n\n  modifier atOpenSession() {\n    require(block.number >= i_open_session_bn && block.number < i_end_notice);\n    _;\n  }\n\n  modifier openToBid() {\n    require(block.number >= i_publish_bn && block.number < i_end_notice);\n    _;\n  }\n\n  modifier afterOpen() {\n    require(block.number >= i_open_session_bn);\n    _;\n  }\n  modifier ended() {\n    require(block.number > i_end_notice);\n    _;\n  }\n\n  modifier autoUpdateStatus() {\n    if(block.number > i_end_notice) {\n      noticeStatusHistory.push(noticeStatus);\n      noticeStatus = NoticeStatus.ENDED;\n      emit UpdateNotice(msg.sender, noticeStatus);\n    }\n    _;\n  }\n  \n  constructor(address _buyer) public payable {\n    notice_owner = _buyer;\n    buyers[_buyer] = true;\n    noticeStatus = NoticeStatus.CONFIG;\n    i_suspension_init = 0;\n    noticeStatusHistory.push(noticeStatus);\n  }\n\n  /*\n    Configuration functions\n  */\n\n  // add notices pdfs\n  function addNoticePDF(string memory pdf_hash) public onlyNoticeOwner() atConfigState() {\n    ipsf_hash.push(pdf_hash);\n    emit NewNoticePDF(msg.sender, pdf_hash);\n  }\n\n  function configBlocksIntervals(uint publish, uint opening, uint start_eminent, uint end, uint extension) public atConfigState onlyNoticeOwner {\n    require(ipsf_hash.length > 0);\n    require(publish >= 0);\n    require(opening > 0);\n    require(start_eminent > 0);\n    require(end > 0);\n    require(extension >= 0);\n    publish_bn.push(publish);\n    opening_bn.push(opening);\n    ending_bn.push(start_eminent);\n    iminent_bn.push(end);\n    i_publish_bn = publish;\n    i_open_session_bn = i_publish_bn + opening;\n    i_start_eminent_bn = i_open_session_bn + start_eminent;\n    i_end_notice = i_start_eminent_bn + end;\n    i_open_to_eminent = start_eminent + opening;\n    blocks_extensions = extension;\n  }\n\n\n  // add item to notice\n  function addItem(uint value, uint ref) public atConfigState() onlyNoticeOwner() returns(address newItem) {\n    require(ipsf_hash.length > 0);\n    NoticeItem new_item = new NoticeItem(value, ref);\n    notice_items.push(address(new_item));\n    notice_items_mapping[address(new_item)] = true;\n    return address(new_item);\n  }\n\n\n  // force end\n  /* function endNotice(uint bn) public notSuspended() notCanceled() onlyNoticeOwner() {\n    iminent_bn.push(ending_bn[ending_bn.length-1] + bn);\n  } */\n\n  // set blocks extensions for every new bid\n  function setBlockExtension(uint extension) public atConfigState() onlyNoticeOwner() {\n    require(extension > 0);\n    blocks_extensions = extension;\n  }\n\n  // add blocks to notices limit\n  function addBlocksLimit() private {\n    require(block.number < i_start_eminent_bn);\n    if (i_start_eminent_bn + blocks_extensions < block.number + i_open_to_eminent) {\n      i_start_eminent_bn += blocks_extensions;\n      i_end_notice += blocks_extensions;\n    } else {\n      i_start_eminent_bn = block.number + i_open_to_eminent;\n      i_end_notice = block.number + i_open_to_eminent;\n    }\n  }\n\n  // change notice status\n  function updateStatus(NoticeStatus status) public onlyNoticeOwner() {\n    noticeStatusHistory.push(noticeStatus);\n    noticeStatus = status;\n    emit UpdateNotice(msg.sender, status);\n  }\n\n  /*\n  Buyer operation functions\n  */\n\n  function startNotice() public onlyNoticeOwner() {\n    require(noticeStatus == NoticeStatus.CONFIG);\n    require(i_suspension_init == 0);\n    i_publish_bn += block.number;\n    i_open_session_bn += block.number;\n    i_start_eminent_bn += block.number;\n    i_end_notice += block.number;\n    updateStatus(NoticeStatus.RUNNING);\n  }\n\n  function suspendNotice() public afterPublish() onlyNoticeOwner() {\n    require(noticeStatus != NoticeStatus.SUSPENDED);\n    i_suspension_init = block.number;\n    updateStatus(NoticeStatus.SUSPENDED);\n  }\n\n  function returnNotice() public afterPublish() onlyNoticeOwner() {\n    uint increment = block.number - i_suspension_init;\n    i_publish_bn += increment;\n    i_open_session_bn += increment;\n    i_start_eminent_bn += increment;\n    i_end_notice += increment;\n    updateStatus(NoticeStatus.RUNNING);\n  }\n\n  function endNotice() public notSuspended() onlyNoticeOwner() {\n    require(block.number >= i_end_notice, \"you cannot end\");\n    updateStatus(NoticeStatus.ENDED);\n  }\n\n  /*\n  Bidders functions\n  */\n\n  // function to bidder enter the notice\n  function enterNotice() public notSuspended() atPublicSummon() {\n    require(msg.sender != notice_owner);\n    require(bidders_mapping[msg.sender].able == false);\n    require(noticeStatus == NoticeStatus.RUNNING);\n    bidders_mapping[msg.sender].able = true;\n    bidders.push(msg.sender);\n  }\n\n  // Bidder exit notice, only before public session opening.\n  function exitNotice() public onlyBidders() atPublicSummon() {\n    bidders_mapping[msg.sender].able = false;\n  }\n\n\n  // make bid and add blocks to notice end\n  function makeBid(address notice_item, uint offer) public autoUpdateStatus() notSuspended() notCanceled() onlyBidders() openToBid() {\n    require(notice_items_mapping[notice_item] == true);\n    require(noticeStatus == NoticeStatus.RUNNING);\n    NoticeItem deployed_contract;\n    deployed_contract = NoticeItem(notice_item);\n\n    uint resp = deployed_contract.tryBid(msg.sender, offer, block.number);\n\n    bidders_mapping[msg.sender].item.push(notice_item);\n    bidders_mapping[msg.sender].value.push(offer);\n    bidders_mapping[msg.sender].bn.push(block.number);\n    bidders_mapping[msg.sender].status_bid.push(resp);\n\n    emit NewBid(msg.sender, notice_item, offer, resp);\n    if (resp <= 2) { // only add blocks to notice limits when the item notice offer is updated\n      addBlocksLimit();\n    }\n  }\n\n  /*\n  Views of the notice\n  */\n\n  // returns most recent pdf info link and hash to verify proof\n  function getLastNoticeInfo() public view returns(string memory ipsf) {\n    require(msg.sender == notice_owner || block.number >= i_publish_bn);\n    require(ipsf_hash.length > 0);\n    return (ipsf_hash[ipsf_hash.length - 1]);\n  }\n\n  // returns any link and hash by index in history\n  function getNoticeHistoryByIndex(uint i) public view returns(string memory ipsf) {\n    require(msg.sender == notice_owner || block.number >= i_publish_bn);\n    require(ipsf_hash.length > 0);\n    require(i < ipsf_hash.length);\n    return (ipsf_hash[i]);\n  }\n\n  function getNoticePDFHistoryLength() public view returns(uint) {\n    require(msg.sender == notice_owner || block.number >= i_publish_bn);\n    require(ipsf_hash.length > 0);\n    return ipsf_hash.length;\n  }\n\n  function getBidders() public view ended() returns(address[] memory) {\n    return bidders;\n  }\n\n  function getNoticeItems() public view afterPublish() returns(address[] memory) {\n    return notice_items;\n  }\n\n  function returnEminentStatus() public view onlyNoticeOwner() returns(bool status) {\n    if (block.number >= i_start_eminent_bn && block.number < i_end_notice) {\n      return true;\n    } else {\n      return false;\n    }\n  }\n\n  // return bids of a given bidder\n  function getBids(address bidder)\n    public view ended()\n    returns(address[] memory notice_item_list, uint[] memory notice_item_offer, uint[] memory notice_offer_ts, uint[] memory notice_offer_status)\n  {\n    return (bidders_mapping[bidder].item, bidders_mapping[bidder].value,\n      bidders_mapping[bidder].bn, bidders_mapping[bidder].status_bid);\n  }\n\n  // get best bidder by any item\n  function getBestBidderItemByAddress(address item_address) public view notSuspended() ended() returns(address bidder) {\n    NoticeItem deployed_contract;\n    deployed_contract = NoticeItem(item_address);\n    return deployed_contract.getBestBidder(i_end_notice);\n  }\n\n  // returns the array with all bidders to the item\n  function getBiddersItemArray(address item_address) public view notSuspended() ended() returns(address[] memory bidders_array) {\n    NoticeItem deployed_contract;\n    deployed_contract = NoticeItem(item_address);\n    return deployed_contract.getAllBestBidders();\n  }\n\n  function getBestOffersItemArray(address item_address) public view notSuspended() afterOpen() returns(uint[] memory best_offer_array) {\n    NoticeItem deployed_contract;\n    deployed_contract = NoticeItem(item_address);\n    return deployed_contract.getAllBestOffers();\n  }\n\n  /* function getBestOfferByItemAddress(address item_address) public afterOpen() view returns (uint best_offer) { */\n  function getBestOfferByItemAddress(address item_address) public view returns(uint best_offer) {\n    NoticeItem deployed_contract;\n    deployed_contract = NoticeItem(item_address);\n    return deployed_contract.getBestOffer();\n  }\n\n  // get max value of given item address\n  function getRefValueByAddress(address item_address) public view returns(uint ref_value) {\n    NoticeItem deployed_contract;\n    deployed_contract = NoticeItem(item_address);\n    return deployed_contract.getRefValue();\n  }\n\n\n  function getInstanceStartEminent() public onlyNoticeOwner view returns (uint) {\n    return i_start_eminent_bn;\n  }\n\n  function getInstanceEndNotice() public onlyNoticeOwner view returns (uint) {\n    return i_end_notice;\n  }\n\n  function getInstanceBlockExtension() public onlyNoticeOwner view returns (uint) {\n    return blocks_extensions;\n  }\n}\n\ncontract NoticeItem {\n  // TODO: add any reference to notice pdf item\n  address notice; // refence to the notice it belongs\n  uint public ref_item_notice; // item reference notice\n  uint public ref_value; // max value of this item\n  uint[] public best_offer; // best offer until now\n  uint[] public blocknumber; // bn of the best offer\n  address[] private best_bidder_address; // address of best bidder\n\n  modifier onlyNotice() {\n    require(msg.sender == notice);\n    _;\n  }\n\n  constructor(uint notice_value, uint ref_item) public payable {\n    notice = msg.sender;\n    ref_value = notice_value;\n    ref_item_notice = ref_item;\n  }\n\n  function tryBid(address bidder, uint offer, uint bid_bn) public onlyNotice returns(uint bid_status) {\n    uint res;\n    if (offer < ref_value) {\n      res = 0;\n    } else {\n      res = 1; \n    }\n    if (best_offer.length == 0 || offer < best_offer[best_offer.length - 1]) {\n      best_offer.push(offer);\n      best_bidder_address.push(bidder);\n      blocknumber.push(bid_bn);\n      return res + 1;\n    } else {\n      return res + 3;\n    }\n  }\n\n  function getBestBidder(uint bn_notice_end) public onlyNotice view returns(address bidder_address) {\n    require(bn_notice_end < block.number);\n    return best_bidder_address[best_bidder_address.length - 1];\n  }\n\n  function getBestOffer() public view returns(uint offer) {\n    return best_offer[best_offer.length - 1];\n  }\n\n  function getRefValue() public view returns(uint ref) {\n    return ref_value;\n  }\n\n  function getAllBestOffers() public onlyNotice view returns(uint[] memory best_offer_array) {\n    return best_offer;\n  }\n\n  function getAllbn() public onlyNotice view returns(uint[] memory offer_bn_array) {\n    return blocknumber;\n  }\n\n  function getAllBestBidders() public onlyNotice view returns(address[] memory best_bidders_array) {\n    return best_bidder_address;\n  }\n}",
  "sourcePath": "/home/rodcaldeira/ufes/20191/pg2/next/contracts/PregaoOnline.sol",
  "compiler": {
    "name": "solc",
    "version": "0.5.0+commit.1d4f565a.Emscripten.clang"
  },
  "schemaVersion": "3.0.9",
  "updatedAt": "2019-06-29T21:54:46.419Z",
  "devdoc": {
    "methods": {}
  },
  "userdoc": {
    "methods": {}
  }
}